:100000000C9434000C9446000C9446000C9446006A
:100010000C9446000C9446000C9446000C94460048
:100020000C9446000C9446000C9446000C94460038
:100030000C9446000C9446000C9452000C9446001C
:100040000C9446000C9446000C9446000C94460018
:100050000C9446000C9446000C9446000C94460008
:100060000C9446000C94460011241FBECFEFD8E03C
:10007000DEBFCDBF21E0A0E0B1E001C01D92A630FF
:10008000B207E1F70E9448000C948C000C94000029
:1000900081E084B987B98AB982E084BD83EC87BDE9
:1000A0007894FECF1F920F920FB60F9211248F9368
:1000B0009F93809104019091050101969093050111
:1000C000809304018536910504F18091020190919D
:1000D00003018C33910551F480910001909101014D
:1000E0000196909301018093000105C001969093C1
:1000F0000301809302018091020185B98091000182
:1001000088B910920501109204019F918F910F9070
:0C0110000FBE0F901F901895F894FFCFC1
:00000001FF
