:100000000C9434000C9446000C9446000C9446006A
:100010000C9446000C9446000C9446000C94460048
:100020000C9446000C9446000C9446000C94460038
:100030000C9446000C9446000C945F000C9446000F
:100040000C9446000C9446000C9446000C94460018
:100050000C9446000C9446000C9446000C94460008
:100060000C9446000C94460011241FBECFEFD8E03C
:10007000DEBFCDBF21E0A0E0B1E001C01D92A830FD
:10008000B207E1F70E9448000C9406010C940000AE
:1000900081E084B987B98AB982E084BD83EC87BDE9
:1000A0007894FECF6AE070E00E94DE00629572955F
:1000B000707F7627607F7627862B972B08951F9277
:1000C0000F920FB60F9211242F933F934F935F938C
:1000D0006F937F938F939F93AF93BF93EF93FF9310
:1000E0008091040190910501019690930501809300
:1000F0000401853691050CF450C080910601909161
:100100000701489721F4109207011092060180918F
:10011000000190910101CC9769F4109201011092B5
:1001200000018091060190910701019690930701CB
:100130008093060180910201909103018C33910517
:1001400071F41092030110920201809100019091CC
:1001500001010196909301018093000105C0019671
:100160009093030180930201809102019091030119
:100170000E94520085B980910001909101010E9476
:10018000520088B980910601909107010E945200A7
:100190008BB91092050110920401FF91EF91BF916C
:1001A000AF919F918F917F916F915F914F913F910F
:1001B0002F910F900FBE0F901F90189597FB072E51
:1001C00016F4009407D077FD09D00E94F20007FCD6
:1001D00005D03EF4909581959F4F08957095619557
:1001E0007F4F0895AA1BBB1B51E107C0AA1FBB1F6D
:1001F000A617B70710F0A61BB70B881F991F5A95B3
:10020000A9F780959095BC01CD010895F894FFCF92
:00000001FF
